{
  "address": "0x78215578b3B11F7F9D0a587028888fb8CF11239A",
  "abi": [
    {
      "inputs": [
        {
          "internalType": "address[4]",
          "name": "_arrLongHegicStrategy",
          "type": "address[4]"
        },
        {
          "internalType": "address[4]",
          "name": "_arrShortHegicStrategy",
          "type": "address[4]"
        },
        {
          "internalType": "contract IERC721",
          "name": "_collateralToken",
          "type": "address"
        },
        {
          "internalType": "contract IHegicOperationalTreasury",
          "name": "_operationalPool",
          "type": "address"
        },
        {
          "internalType": "contract IERC20",
          "name": "_USDC",
          "type": "address"
        },
        {
          "internalType": "uint256",
          "name": "_minBorrowLimit",
          "type": "uint256"
        },
        {
          "internalType": "uint256",
          "name": "_ltv",
          "type": "uint256"
        },
        {
          "internalType": "uint256",
          "name": "_COLLATERAL_DECIMALS",
          "type": "uint256"
        }
      ],
      "stateMutability": "nonpayable",
      "type": "constructor"
    },
    {
      "anonymous": false,
      "inputs": [
        {
          "indexed": true,
          "internalType": "address",
          "name": "owner",
          "type": "address"
        },
        {
          "indexed": true,
          "internalType": "address",
          "name": "approved",
          "type": "address"
        },
        {
          "indexed": true,
          "internalType": "uint256",
          "name": "tokenId",
          "type": "uint256"
        }
      ],
      "name": "Approval",
      "type": "event"
    },
    {
      "anonymous": false,
      "inputs": [
        {
          "indexed": true,
          "internalType": "address",
          "name": "owner",
          "type": "address"
        },
        {
          "indexed": true,
          "internalType": "address",
          "name": "operator",
          "type": "address"
        },
        {
          "indexed": false,
          "internalType": "bool",
          "name": "approved",
          "type": "bool"
        }
      ],
      "name": "ApprovalForAll",
      "type": "event"
    },
    {
      "anonymous": false,
      "inputs": [
        {
          "indexed": true,
          "internalType": "address",
          "name": "user",
          "type": "address"
        },
        {
          "indexed": true,
          "internalType": "uint256",
          "name": "optionID",
          "type": "uint256"
        },
        {
          "indexed": false,
          "internalType": "uint256",
          "name": "amount",
          "type": "uint256"
        },
        {
          "indexed": false,
          "internalType": "address",
          "name": "strategy",
          "type": "address"
        },
        {
          "indexed": false,
          "internalType": "uint256",
          "name": "timestamp",
          "type": "uint256"
        }
      ],
      "name": "Borrow",
      "type": "event"
    },
    {
      "anonymous": false,
      "inputs": [
        {
          "indexed": true,
          "internalType": "address",
          "name": "user",
          "type": "address"
        },
        {
          "indexed": true,
          "internalType": "uint256",
          "name": "optionID",
          "type": "uint256"
        },
        {
          "indexed": false,
          "internalType": "uint256",
          "name": "amount",
          "type": "uint256"
        },
        {
          "indexed": false,
          "internalType": "uint256",
          "name": "liqFee",
          "type": "uint256"
        }
      ],
      "name": "ForcedExercise",
      "type": "event"
    },
    {
      "anonymous": false,
      "inputs": [
        {
          "indexed": true,
          "internalType": "address",
          "name": "user",
          "type": "address"
        },
        {
          "indexed": true,
          "internalType": "uint256",
          "name": "optionID",
          "type": "uint256"
        },
        {
          "indexed": false,
          "internalType": "uint256",
          "name": "amount",
          "type": "uint256"
        },
        {
          "indexed": false,
          "internalType": "uint256",
          "name": "liqFee",
          "type": "uint256"
        }
      ],
      "name": "Liquidate",
      "type": "event"
    },
    {
      "anonymous": false,
      "inputs": [
        {
          "indexed": true,
          "internalType": "address",
          "name": "previousOwner",
          "type": "address"
        },
        {
          "indexed": true,
          "internalType": "address",
          "name": "newOwner",
          "type": "address"
        }
      ],
      "name": "OwnershipTransferred",
      "type": "event"
    },
    {
      "anonymous": false,
      "inputs": [
        {
          "indexed": true,
          "internalType": "address",
          "name": "user",
          "type": "address"
        },
        {
          "indexed": true,
          "internalType": "uint256",
          "name": "optionID",
          "type": "uint256"
        },
        {
          "indexed": false,
          "internalType": "uint256",
          "name": "amount",
          "type": "uint256"
        }
      ],
      "name": "Repay",
      "type": "event"
    },
    {
      "anonymous": false,
      "inputs": [
        {
          "indexed": true,
          "internalType": "address",
          "name": "from",
          "type": "address"
        },
        {
          "indexed": true,
          "internalType": "address",
          "name": "to",
          "type": "address"
        },
        {
          "indexed": true,
          "internalType": "uint256",
          "name": "tokenId",
          "type": "uint256"
        }
      ],
      "name": "Transfer",
      "type": "event"
    },
    {
      "anonymous": false,
      "inputs": [
        {
          "indexed": true,
          "internalType": "address",
          "name": "user",
          "type": "address"
        },
        {
          "indexed": true,
          "internalType": "uint256",
          "name": "optionID",
          "type": "uint256"
        }
      ],
      "name": "Unlock",
      "type": "event"
    },
    {
      "inputs": [],
      "name": "COLLATERAL_DECIMALS",
      "outputs": [
        {
          "internalType": "uint256",
          "name": "",
          "type": "uint256"
        }
      ],
      "stateMutability": "view",
      "type": "function"
    },
    {
      "inputs": [],
      "name": "INTEREST_RATE_DECIMALS",
      "outputs": [
        {
          "internalType": "uint256",
          "name": "",
          "type": "uint256"
        }
      ],
      "stateMutability": "view",
      "type": "function"
    },
    {
      "inputs": [],
      "name": "LIQ_COEF_DECIMALS",
      "outputs": [
        {
          "internalType": "uint256",
          "name": "",
          "type": "uint256"
        }
      ],
      "stateMutability": "view",
      "type": "function"
    },
    {
      "inputs": [],
      "name": "LTV",
      "outputs": [
        {
          "internalType": "uint256",
          "name": "",
          "type": "uint256"
        }
      ],
      "stateMutability": "view",
      "type": "function"
    },
    {
      "inputs": [],
      "name": "LTV_DECIMALS",
      "outputs": [
        {
          "internalType": "uint256",
          "name": "",
          "type": "uint256"
        }
      ],
      "stateMutability": "view",
      "type": "function"
    },
    {
      "inputs": [],
      "name": "USDC",
      "outputs": [
        {
          "internalType": "contract IERC20",
          "name": "",
          "type": "address"
        }
      ],
      "stateMutability": "view",
      "type": "function"
    },
    {
      "inputs": [
        {
          "internalType": "address",
          "name": "to",
          "type": "address"
        },
        {
          "internalType": "uint256",
          "name": "tokenId",
          "type": "uint256"
        }
      ],
      "name": "approve",
      "outputs": [],
      "stateMutability": "nonpayable",
      "type": "function"
    },
    {
      "inputs": [
        {
          "internalType": "address",
          "name": "owner",
          "type": "address"
        }
      ],
      "name": "balanceOf",
      "outputs": [
        {
          "internalType": "uint256",
          "name": "",
          "type": "uint256"
        }
      ],
      "stateMutability": "view",
      "type": "function"
    },
    {
      "inputs": [
        {
          "internalType": "uint256",
          "name": "id",
          "type": "uint256"
        },
        {
          "internalType": "uint256",
          "name": "amount",
          "type": "uint256"
        }
      ],
      "name": "borrow",
      "outputs": [],
      "stateMutability": "nonpayable",
      "type": "function"
    },
    {
      "inputs": [
        {
          "internalType": "uint256",
          "name": "",
          "type": "uint256"
        }
      ],
      "name": "borrowedByOption",
      "outputs": [
        {
          "internalType": "uint256",
          "name": "borrowed",
          "type": "uint256"
        },
        {
          "internalType": "uint256",
          "name": "newBorrowTimestamp",
          "type": "uint256"
        }
      ],
      "stateMutability": "view",
      "type": "function"
    },
    {
      "inputs": [
        {
          "internalType": "uint256",
          "name": "id",
          "type": "uint256"
        }
      ],
      "name": "calculateUpcomingFee",
      "outputs": [
        {
          "internalType": "uint256",
          "name": "upcomingFee",
          "type": "uint256"
        }
      ],
      "stateMutability": "view",
      "type": "function"
    },
    {
      "inputs": [
        {
          "internalType": "uint256",
          "name": "",
          "type": "uint256"
        }
      ],
      "name": "collateralInfo",
      "outputs": [
        {
          "internalType": "address",
          "name": "owner",
          "type": "address"
        },
        {
          "components": [
            {
              "internalType": "address",
              "name": "strategyAddress",
              "type": "address"
            },
            {
              "internalType": "uint256",
              "name": "amount",
              "type": "uint256"
            },
            {
              "internalType": "uint256",
              "name": "strike",
              "type": "uint256"
            },
            {
              "internalType": "uint256",
              "name": "expiration",
              "type": "uint256"
            },
            {
              "internalType": "bool",
              "name": "isLong",
              "type": "bool"
            }
          ],
          "internalType": "struct DDL.optionInfo",
          "name": "strategy",
          "type": "tuple"
        }
      ],
      "stateMutability": "view",
      "type": "function"
    },
    {
      "inputs": [],
      "name": "collateralToken",
      "outputs": [
        {
          "internalType": "contract IERC721",
          "name": "",
          "type": "address"
        }
      ],
      "stateMutability": "view",
      "type": "function"
    },
    {
      "inputs": [
        {
          "internalType": "uint256",
          "name": "id",
          "type": "uint256"
        }
      ],
      "name": "currentPrice",
      "outputs": [
        {
          "internalType": "uint256",
          "name": "price",
          "type": "uint256"
        }
      ],
      "stateMutability": "view",
      "type": "function"
    },
    {
      "inputs": [
        {
          "internalType": "uint256",
          "name": "id",
          "type": "uint256"
        }
      ],
      "name": "exerciseOption",
      "outputs": [],
      "stateMutability": "nonpayable",
      "type": "function"
    },
    {
      "inputs": [
        {
          "internalType": "uint256",
          "name": "id",
          "type": "uint256"
        }
      ],
      "name": "forcedExercise",
      "outputs": [],
      "stateMutability": "nonpayable",
      "type": "function"
    },
    {
      "inputs": [
        {
          "internalType": "uint256",
          "name": "tokenId",
          "type": "uint256"
        }
      ],
      "name": "getApproved",
      "outputs": [
        {
          "internalType": "address",
          "name": "",
          "type": "address"
        }
      ],
      "stateMutability": "view",
      "type": "function"
    },
    {
      "inputs": [],
      "name": "interestRate",
      "outputs": [
        {
          "internalType": "uint256",
          "name": "",
          "type": "uint256"
        }
      ],
      "stateMutability": "view",
      "type": "function"
    },
    {
      "inputs": [
        {
          "internalType": "address",
          "name": "owner",
          "type": "address"
        },
        {
          "internalType": "address",
          "name": "operator",
          "type": "address"
        }
      ],
      "name": "isApprovedForAll",
      "outputs": [
        {
          "internalType": "bool",
          "name": "",
          "type": "bool"
        }
      ],
      "stateMutability": "view",
      "type": "function"
    },
    {
      "inputs": [],
      "name": "liqCoef",
      "outputs": [
        {
          "internalType": "uint256",
          "name": "",
          "type": "uint256"
        }
      ],
      "stateMutability": "view",
      "type": "function"
    },
    {
      "inputs": [
        {
          "internalType": "uint256",
          "name": "id",
          "type": "uint256"
        }
      ],
      "name": "liqPrice",
      "outputs": [
        {
          "internalType": "uint256",
          "name": "liquidationPrice",
          "type": "uint256"
        }
      ],
      "stateMutability": "view",
      "type": "function"
    },
    {
      "inputs": [
        {
          "internalType": "uint256",
          "name": "id",
          "type": "uint256"
        }
      ],
      "name": "liquidate",
      "outputs": [],
      "stateMutability": "nonpayable",
      "type": "function"
    },
    {
      "inputs": [],
      "name": "liquidator",
      "outputs": [
        {
          "internalType": "address",
          "name": "",
          "type": "address"
        }
      ],
      "stateMutability": "view",
      "type": "function"
    },
    {
      "inputs": [
        {
          "internalType": "uint256",
          "name": "id",
          "type": "uint256"
        }
      ],
      "name": "loanState",
      "outputs": [
        {
          "internalType": "bool",
          "name": "",
          "type": "bool"
        }
      ],
      "stateMutability": "view",
      "type": "function"
    },
    {
      "inputs": [
        {
          "internalType": "uint256",
          "name": "id",
          "type": "uint256"
        }
      ],
      "name": "lockOption",
      "outputs": [],
      "stateMutability": "nonpayable",
      "type": "function"
    },
    {
      "inputs": [
        {
          "internalType": "uint256",
          "name": "id",
          "type": "uint256"
        }
      ],
      "name": "maxBorrowLimit",
      "outputs": [
        {
          "internalType": "uint256",
          "name": "",
          "type": "uint256"
        }
      ],
      "stateMutability": "view",
      "type": "function"
    },
    {
      "inputs": [],
      "name": "minBorrowLimit",
      "outputs": [
        {
          "internalType": "uint256",
          "name": "",
          "type": "uint256"
        }
      ],
      "stateMutability": "view",
      "type": "function"
    },
    {
      "inputs": [],
      "name": "name",
      "outputs": [
        {
          "internalType": "string",
          "name": "",
          "type": "string"
        }
      ],
      "stateMutability": "view",
      "type": "function"
    },
    {
      "inputs": [],
      "name": "operationalPool",
      "outputs": [
        {
          "internalType": "contract IHegicOperationalTreasury",
          "name": "",
          "type": "address"
        }
      ],
      "stateMutability": "view",
      "type": "function"
    },
    {
      "inputs": [],
      "name": "owner",
      "outputs": [
        {
          "internalType": "address",
          "name": "",
          "type": "address"
        }
      ],
      "stateMutability": "view",
      "type": "function"
    },
    {
      "inputs": [
        {
          "internalType": "uint256",
          "name": "tokenId",
          "type": "uint256"
        }
      ],
      "name": "ownerOf",
      "outputs": [
        {
          "internalType": "address",
          "name": "",
          "type": "address"
        }
      ],
      "stateMutability": "view",
      "type": "function"
    },
    {
      "inputs": [],
      "name": "pool",
      "outputs": [
        {
          "internalType": "contract IPoolDDL",
          "name": "",
          "type": "address"
        }
      ],
      "stateMutability": "view",
      "type": "function"
    },
    {
      "inputs": [
        {
          "internalType": "uint256",
          "name": "id",
          "type": "uint256"
        }
      ],
      "name": "profitByOption",
      "outputs": [
        {
          "internalType": "uint256",
          "name": "profit",
          "type": "uint256"
        }
      ],
      "stateMutability": "view",
      "type": "function"
    },
    {
      "inputs": [],
      "name": "renounceOwnership",
      "outputs": [],
      "stateMutability": "nonpayable",
      "type": "function"
    },
    {
      "inputs": [
        {
          "internalType": "uint256",
          "name": "id",
          "type": "uint256"
        },
        {
          "internalType": "uint256",
          "name": "amount",
          "type": "uint256"
        }
      ],
      "name": "repay",
      "outputs": [],
      "stateMutability": "nonpayable",
      "type": "function"
    },
    {
      "inputs": [
        {
          "internalType": "address",
          "name": "from",
          "type": "address"
        },
        {
          "internalType": "address",
          "name": "to",
          "type": "address"
        },
        {
          "internalType": "uint256",
          "name": "tokenId",
          "type": "uint256"
        }
      ],
      "name": "safeTransferFrom",
      "outputs": [],
      "stateMutability": "nonpayable",
      "type": "function"
    },
    {
      "inputs": [
        {
          "internalType": "address",
          "name": "from",
          "type": "address"
        },
        {
          "internalType": "address",
          "name": "to",
          "type": "address"
        },
        {
          "internalType": "uint256",
          "name": "tokenId",
          "type": "uint256"
        },
        {
          "internalType": "bytes",
          "name": "data",
          "type": "bytes"
        }
      ],
      "name": "safeTransferFrom",
      "outputs": [],
      "stateMutability": "nonpayable",
      "type": "function"
    },
    {
      "inputs": [
        {
          "internalType": "address",
          "name": "operator",
          "type": "address"
        },
        {
          "internalType": "bool",
          "name": "approved",
          "type": "bool"
        }
      ],
      "name": "setApprovalForAll",
      "outputs": [],
      "stateMutability": "nonpayable",
      "type": "function"
    },
    {
      "inputs": [
        {
          "internalType": "uint256",
          "name": "value",
          "type": "uint256"
        }
      ],
      "name": "setInterestRate",
      "outputs": [],
      "stateMutability": "nonpayable",
      "type": "function"
    },
    {
      "inputs": [
        {
          "internalType": "uint256",
          "name": "value",
          "type": "uint256"
        }
      ],
      "name": "setInterestRateDecimals",
      "outputs": [],
      "stateMutability": "nonpayable",
      "type": "function"
    },
    {
      "inputs": [
        {
          "internalType": "uint256",
          "name": "value",
          "type": "uint256"
        }
      ],
      "name": "setLTV",
      "outputs": [],
      "stateMutability": "nonpayable",
      "type": "function"
    },
    {
      "inputs": [
        {
          "internalType": "uint256",
          "name": "value",
          "type": "uint256"
        }
      ],
      "name": "setLTVDecimals",
      "outputs": [],
      "stateMutability": "nonpayable",
      "type": "function"
    },
    {
      "inputs": [
        {
          "internalType": "uint256",
          "name": "value",
          "type": "uint256"
        }
      ],
      "name": "setLiqCoef",
      "outputs": [],
      "stateMutability": "nonpayable",
      "type": "function"
    },
    {
      "inputs": [
        {
          "internalType": "uint256",
          "name": "value",
          "type": "uint256"
        }
      ],
      "name": "setLiqCoefDecimals",
      "outputs": [],
      "stateMutability": "nonpayable",
      "type": "function"
    },
    {
      "inputs": [
        {
          "internalType": "address",
          "name": "value",
          "type": "address"
        }
      ],
      "name": "setLiquidator",
      "outputs": [],
      "stateMutability": "nonpayable",
      "type": "function"
    },
    {
      "inputs": [
        {
          "internalType": "uint256",
          "name": "value",
          "type": "uint256"
        }
      ],
      "name": "setMinBorrowLimit",
      "outputs": [],
      "stateMutability": "nonpayable",
      "type": "function"
    },
    {
      "inputs": [
        {
          "internalType": "address",
          "name": "value",
          "type": "address"
        }
      ],
      "name": "setPool",
      "outputs": [],
      "stateMutability": "nonpayable",
      "type": "function"
    },
    {
      "inputs": [
        {
          "internalType": "address",
          "name": "",
          "type": "address"
        }
      ],
      "name": "strategyType",
      "outputs": [
        {
          "internalType": "enum DDL.HegicStrategyType",
          "name": "",
          "type": "uint8"
        }
      ],
      "stateMutability": "view",
      "type": "function"
    },
    {
      "inputs": [
        {
          "internalType": "bytes4",
          "name": "interfaceId",
          "type": "bytes4"
        }
      ],
      "name": "supportsInterface",
      "outputs": [
        {
          "internalType": "bool",
          "name": "",
          "type": "bool"
        }
      ],
      "stateMutability": "view",
      "type": "function"
    },
    {
      "inputs": [],
      "name": "symbol",
      "outputs": [
        {
          "internalType": "string",
          "name": "",
          "type": "string"
        }
      ],
      "stateMutability": "view",
      "type": "function"
    },
    {
      "inputs": [
        {
          "internalType": "uint256",
          "name": "tokenId",
          "type": "uint256"
        }
      ],
      "name": "tokenURI",
      "outputs": [
        {
          "internalType": "string",
          "name": "",
          "type": "string"
        }
      ],
      "stateMutability": "view",
      "type": "function"
    },
    {
      "inputs": [
        {
          "internalType": "address",
          "name": "from",
          "type": "address"
        },
        {
          "internalType": "address",
          "name": "to",
          "type": "address"
        },
        {
          "internalType": "uint256",
          "name": "tokenId",
          "type": "uint256"
        }
      ],
      "name": "transferFrom",
      "outputs": [],
      "stateMutability": "nonpayable",
      "type": "function"
    },
    {
      "inputs": [
        {
          "internalType": "address",
          "name": "newOwner",
          "type": "address"
        }
      ],
      "name": "transferOwnership",
      "outputs": [],
      "stateMutability": "nonpayable",
      "type": "function"
    },
    {
      "inputs": [
        {
          "internalType": "uint256",
          "name": "id",
          "type": "uint256"
        }
      ],
      "name": "unlock",
      "outputs": [],
      "stateMutability": "nonpayable",
      "type": "function"
    }
  ],
  "transactionHash": "0xf109e170a8bd821dbf87864d9a314c431ebc96f743ac65a23e3b346f2329ad73",
  "args": [
    [
      "0xA321404B708682531B2a959c52AA8A53F35A14AE",
      "0xc8715eAB195CE1dF628ce3B89B63F3849a55Ffe9",
      "0x9F7e2a3dcf8Ba93B00EE5d3aF2419ebc1DBb6256",
      "0xAc28e549e5D61Ecb586f7FEE51Bcbf454591b082"
    ],
    [
      "0x83305A6B2B906704Ed042CBEFAfe94DBc3f185DD",
      "0xB3C9DEac7c37d7144f61166baf91f5682fae7338",
      "0x824081Cd6397aBD018cfc039440594b832De8d2c",
      "0x7a4aF7AAF60292461098edDFA63e4095144331ff"
    ],
    "0x5B53d56c5a63ebBE852D9D911b7886A4338953f1",
    "0xB0F9F032158510cd4a926F9263Abc86bAF7b4Ab3",
    "0xDBD58A3a369DD91C5094737A5571cF8B14f700A7",
    0,
    9000,
    8
  ],
  "numDeployments": 3,
  "solcInputHash": "52b27df93a35a405458d8e92109655df",
  "bytecode": "0x6080604052612710600855690eb49743b1c96d575e00600d556c0c9f2c9cd04674edea40000000600e55606e600f5560646010553480156200004057600080fd5b506040516200352f3803806200352f8339810160408190526200006391620003ec565b604051806040016040528060078152602001660888898408aa8960cb1b8152506040518060400160405280600681526020016508888988aa8960d31b815250620000bc620000b66200024e60201b60201c565b62000252565b8151620000d1906001906020850190620002a2565b508051620000e7906002906020840190620002a2565b50505060005b60048110156200016a576001601660008b846004811062000112576200011262000624565b602090810291909101516001600160a01b03168252810191909152604001600020805460ff191660018360028111156200015057620001506200060e565b0217905550806200016181620005da565b915050620000ed565b5060005b6004811015620001eb576002601660008a846004811062000193576200019362000624565b602090810291909101516001600160a01b03168252810191909152604001600020805460ff19166001836002811115620001d157620001d16200060e565b021790555080620001e281620005da565b9150506200016e565b50600a80546001600160a01b038089166001600160a01b0319928316178355600b8054898316908416179055600c805491881691909216179055601184905560078390556200023c908290620004d2565b60125550620006539650505050505050565b3390565b600080546001600160a01b038381166001600160a01b0319831681178455604051919092169283917f8be0079c531659141344cd1fd0a4f28419497f9722a3daafe3b4186f6b6457e09190a35050565b828054620002b0906200059d565b90600052602060002090601f016020900481019282620002d457600085556200031f565b82601f10620002ef57805160ff19168380011785556200031f565b828001600101855582156200031f579182015b828111156200031f57825182559160200191906001019062000302565b506200032d92915062000331565b5090565b5b808211156200032d576000815560010162000332565b805162000355816200063a565b919050565b600082601f8301126200036c57600080fd5b604051608081016001600160401b03811182821017156200039d57634e487b7160e01b600052604160045260246000fd5b604052808360808101861015620003b357600080fd5b60005b6004811015620003e157620003cb8262000348565b83526020928301929190910190600101620003b6565b509195945050505050565b6000806000806000806000806101c0898b0312156200040a57600080fd5b620004168a8a6200035a565b9750620004278a60808b016200035a565b96506101008901516200043a816200063a565b6101208a01519096506200044e816200063a565b6101408a015190955062000462816200063a565b6101608a01516101808b01516101a0909b0151999c989b5096999598909790945092505050565b600181815b80851115620004ca578160001904821115620004ae57620004ae620005f8565b80851615620004bc57918102915b93841c93908002906200048e565b509250929050565b6000620004e08383620004e7565b9392505050565b600082620004f85750600162000597565b81620005075750600062000597565b81600181146200052057600281146200052b576200054b565b600191505062000597565b60ff8411156200053f576200053f620005f8565b50506001821b62000597565b5060208310610133831016604e8410600b841016171562000570575081810a62000597565b6200057c838362000489565b8060001904821115620005935762000593620005f8565b0290505b92915050565b600181811c90821680620005b257607f821691505b60208210811415620005d457634e487b7160e01b600052602260045260246000fd5b50919050565b6000600019821415620005f157620005f1620005f8565b5060010190565b634e487b7160e01b600052601160045260246000fd5b634e487b7160e01b600052602160045260246000fd5b634e487b7160e01b600052603260045260246000fd5b6001600160a01b03811681146200065057600080fd5b50565b612ecc80620006636000396000f3fe608060405234801561001057600080fd5b50600436106103425760003560e01c80636c016c00116101b8578063a5f2a82111610104578063cb46ed97116100a2578063e260d7471161007c578063e260d747146107d3578063e985e9c5146107dc578063f2fde38b14610818578063f52f25261461082b57600080fd5b8063cb46ed971461079a578063d88c6910146107ad578063d8aed145146107c057600080fd5b8063b2016bd4116100de578063b2016bd41461074e578063b88d4fde14610761578063c370770914610774578063c87b56dd1461078757600080fd5b8063a5f2a82114610715578063aebce83914610728578063b13de2661461073b57600080fd5b80638ac2edc11161017157806395d89b411161014b57806395d89b41146106de5780639d38d064146106e65780639e3aa5b1146106ef578063a22cb4651461070257600080fd5b80638ac2edc1146106a75780638da5cb5b146106ba57806391319872146106cb57600080fd5b80636c016c001461062157806370a082311461065d578063715018a6146106705780637a3c4c17146106785780637c3a00fd1461068b57806389a302711461069457600080fd5b8063357bcef0116102925780634ddde78d116102305780636198e3391161020a5780636198e339146105e957806362965d8e146105fc5780636352211e1461060557806366234ffa1461061857600080fd5b80634ddde78d146105ba578063587a03c2146105c35780635f84f302146105d657600080fd5b806342842e0e1161026c57806342842e0e1461056e5780634437152a14610581578063484f13711461059457806349b274ed146105a757600080fd5b8063357bcef0146105185780634046ebae14610548578063415f12401461055b57600080fd5b8063095ea7b3116102ff57806323b872dd116102d957806323b872dd1461043157806324a6665e1461044457806324e1f9d214610506578063305106051461050f57600080fd5b8063095ea7b3146103f85780630ecbcdab1461040b57806316f0115b1461041e57600080fd5b806301c76f811461034757806301d736411461035c57806301ffc9a71461036f57806306fdde0314610397578063081812fc146103ac5780630833a6c6146103d7575b600080fd5b61035a6103553660046127f3565b61083e565b005b61035a61036a366004612ae6565b610868565b61038261037d3660046129fe565b610a4d565b60405190151581526020015b60405180910390f35b61039f610a9f565b60405161038e9190612c4a565b6103bf6103ba366004612ae6565b610b31565b6040516001600160a01b03909116815260200161038e565b6103ea6103e5366004612ae6565b610b58565b60405190815260200161038e565b61035a6104063660046129b5565b610c5f565b61035a610419366004612b18565b610d7a565b6013546103bf906001600160a01b031681565b61035a61043f366004612866565b6110bc565b6104b7610452366004612ae6565b6014602090815260009182526040918290208054835160a08101855260018301546001600160a01b0390811682526002840154948201949094526003830154948101949094526004820154606085015260059091015460ff1615156080840152169082565b604080516001600160a01b0393841681528251909316602080850191909152820151838201528101516060808401919091528101516080808401919091520151151560a082015260c00161038e565b6103ea600f5481565b6103ea60105481565b61053b6105263660046127f3565b60166020526000908152604090205460ff1681565b60405161038e9190612c22565b6009546103bf906001600160a01b031681565b61035a610569366004612ae6565b6110ed565b61035a61057c366004612866565b6112cf565b61035a61058f3660046127f3565b6112ea565b6103ea6105a2366004612ae6565b611314565b6103826105b5366004612ae6565b61137d565b6103ea60125481565b61035a6105d1366004612ae6565b6113d4565b61035a6105e4366004612ae6565b6113e1565b61035a6105f7366004612ae6565b6113ee565b6103ea60075481565b6103bf610613366004612ae6565b6114e9565b6103ea600e5481565b61064861062f366004612ae6565b6015602052600090815260409020805460019091015482565b6040805192835260208301919091520161038e565b6103ea61066b3660046127f3565b611549565b61035a6115cf565b6103ea610686366004612ae6565b6115e3565b6103ea600d5481565b600c546103bf906001600160a01b031681565b61035a6106b5366004612ae6565b6116ee565b6000546001600160a01b03166103bf565b600b546103bf906001600160a01b031681565b61039f611b0b565b6103ea60085481565b6103ea6106fd366004612ae6565b611b1a565b61035a610710366004612987565b611b3f565b61035a610723366004612ae6565b611b4e565b61035a610736366004612ae6565b611b5b565b61035a610749366004612ae6565b611b68565b600a546103bf906001600160a01b031681565b61035a61076f3660046128a7565b611b75565b61035a610782366004612ae6565b611bad565b61039f610795366004612ae6565b611bba565b61035a6107a8366004612ae6565b611c2d565b6103ea6107bb366004612ae6565b611c3a565b61035a6107ce366004612b18565b611d3a565b6103ea60115481565b6103826107ea36600461282d565b6001600160a01b03918216600090815260066020908152604080832093909416825291909152205460ff1690565b61035a6108263660046127f3565b61203b565b61035a610839366004612ae6565b6120b4565b610846612127565b600980546001600160a01b0319166001600160a01b0392909216919091179055565b6000818152601460205260409020600401546108879061070890612d48565b421161089257600080fd5b6000818152601560205260408120906108aa83610b58565b90506108b5836120b4565b600c5460095483546001600160a01b039283169263a9059cbb9216906108db9085612d48565b6040516001600160e01b031960e085901b1681526001600160a01b0390921660048301526024820152604401602060405180830381600087803b15801561092157600080fd5b505af1158015610935573d6000803e3d6000fd5b505050506040513d601f19601f8201168201806040525081019061095991906129e1565b50600c54601354835460405163a9059cbb60e01b81526001600160a01b039283166004820152602481019190915291169063a9059cbb90604401602060405180830381600087803b1580156109ad57600080fd5b505af11580156109c1573d6000803e3d6000fd5b505050506040513d601f19601f820116820180604052508101906109e591906129e1565b50600083815260146020526040902054825484916001600160a01b0316907fd390cf9d6769fb836c02d24dccc529013597f6364e31485346c52bf66eeeb7ff90610a2f8186612d48565b604080519283526020830191909152015b60405180910390a3505050565b60006001600160e01b031982166380ac58cd60e01b1480610a7e57506001600160e01b03198216635b5e139f60e01b145b80610a9957506301ffc9a760e01b6001600160e01b03198316145b92915050565b606060018054610aae90612d8b565b80601f0160208091040260200160405190810160405280929190818152602001828054610ada90612d8b565b8015610b275780601f10610afc57610100808354040283529160200191610b27565b820191906000526020600020905b815481529060010190602001808311610b0a57829003601f168201915b5050505050905090565b6000610b3c82612181565b506000908152600560205260409020546001600160a01b031690565b600b54604051633755269b60e01b81526004810183905260009182916001600160a01b0390911690633755269b9060240160a06040518083038186803b158015610ba157600080fd5b505afa158015610bb5573d6000803e3d6000fd5b505050506040513d601f19601f82011682018060405250810190610bd99190612a38565b5050604051637632bffb60e01b815260048101879052919350506001600160a01b0383169150637632bffb9060240160206040518083038186803b158015610c2057600080fd5b505afa158015610c34573d6000803e3d6000fd5b505050506040513d601f19601f82011682018060405250810190610c589190612aff565b9392505050565b6000610c6a826114e9565b9050806001600160a01b0316836001600160a01b03161415610cdd5760405162461bcd60e51b815260206004820152602160248201527f4552433732313a20617070726f76616c20746f2063757272656e74206f776e656044820152603960f91b60648201526084015b60405180910390fd5b336001600160a01b0382161480610cf95750610cf981336107ea565b610d6b5760405162461bcd60e51b815260206004820152603e60248201527f4552433732313a20617070726f76652063616c6c6572206973206e6f7420746f60448201527f6b656e206f776e6572206e6f7220617070726f76656420666f7220616c6c00006064820152608401610cd4565b610d7583836121e0565b505050565b600082815260156020526040812090610d9284611b1a565b600b54604051633755269b60e01b8152600481018790529192506000916001600160a01b0390911690633755269b9060240160a06040518083038186803b158015610ddc57600080fd5b505afa158015610df0573d6000803e3d6000fd5b505050506040513d601f19601f82011682018060405250810190610e149190612a38565b5050505090506000601360009054906101000a90046001600160a01b03166001600160a01b03166312b583496040518163ffffffff1660e01b815260040160206040518083038186803b158015610e6a57600080fd5b505afa158015610e7e573d6000803e3d6000fd5b505050506040513d601f19601f82011682018060405250810190610ea29190612aff565b9050601154851015610eb357600080fd5b83548390610ec19087612cfd565b1115610ecc57600080fd5b6001826001811115610ee057610ee0612e1b565b14610eea57600080fd5b6000868152601460205260409020546001600160a01b03163314610f0d57600080fd5b80851115610f1a57600080fd5b60135460008781526014602052604090819020549051633419e74d60e21b81526001600160a01b0391821660048201526024810188905291169063d0679d3490604401600060405180830381600087803b158015610f7757600080fd5b505af1158015610f8b573d6000803e3d6000fd5b505050506000610f9a87611314565b9050604051806040016040528082876000015489610fb89190612cfd565b610fc29190612cfd565b81524260209182015260008981526015825260409020825181559101516001909101556013546001600160a01b0316632bc355ca6110008389612cfd565b6040518263ffffffff1660e01b815260040161101e91815260200190565b600060405180830381600087803b15801561103857600080fd5b505af115801561104c573d6000803e3d6000fd5b5050506000888152601460209081526040918290206001015482518a81526001600160a01b03909116918101919091524281830152905189925033917f1fdbee5d1bd2901710e8945918b1a052ce67662661a2ccbf68420e4e430f8dab919081900360600190a350505050505050565b6110c6338261224e565b6110e25760405162461bcd60e51b8152600401610cd490612caf565b610d758383836122cc565b6110f68161137d565b6111325760405162461bcd60e51b815260206004820152600d60248201526c696e76616c696420707269636560981b6044820152606401610cd4565b60008181526015602052604081209061114a83610b58565b9050611155836120b4565b600c5460095483546001600160a01b039283169263a9059cbb92169061117b9085612d48565b6040516001600160e01b031960e085901b1681526001600160a01b0390921660048301526024820152604401602060405180830381600087803b1580156111c157600080fd5b505af11580156111d5573d6000803e3d6000fd5b505050506040513d601f19601f820116820180604052508101906111f991906129e1565b50600c54601354835460405163a9059cbb60e01b81526001600160a01b039283166004820152602481019190915291169063a9059cbb90604401602060405180830381600087803b15801561124d57600080fd5b505af1158015611261573d6000803e3d6000fd5b505050506040513d601f19601f8201168201806040525081019061128591906129e1565b50600083815260146020526040902054825484916001600160a01b0316907f158ba9ab7bbbd08eeffa4753bad41f4d450e24831d293427308badf3eadd8c7690610a2f8186612d48565b610d7583838360405180602001604052806000815250611b75565b6112f2612127565b601380546001600160a01b0319166001600160a01b0392909216919091179055565b600081815260156020526040812060018101548290603c906113369042612d48565b6113409190612d15565b9050600e54600d54826113539190612d29565b835461136190606490612d15565b61136b9190612d29565b6113759190612d15565b949350505050565b6000818152601460205260408120600581015460ff16156113b3576113a183611c3a565b6113aa846115e3565b11159392505050565b6113bc83611c3a565b6113c5846115e3565b10159392505050565b50919050565b6113dc612127565b600e55565b6113e9612127565b600d55565b6000818152601560205260409020541561143e5760405162461bcd60e51b81526020600482015260116024820152701bdc1d1a5bdb881a5cc8189b1bd8dad959607a1b6044820152606401610cd4565b600a54600082815260146020526040908190205490516323b872dd60e01b81523060048201526001600160a01b039182166024820152604481018490529116906323b872dd90606401600060405180830381600087803b1580156114a157600080fd5b505af11580156114b5573d6000803e3d6000fd5b50506040518392503391507f6381d9813cabeb57471b5a7e05078e64845ccdb563146a6911d536f24ce960f190600090a350565b6000818152600360205260408120546001600160a01b031680610a995760405162461bcd60e51b8152602060048201526018602482015277115490cdcc8c4e881a5b9d985b1a59081d1bdad95b88125160421b6044820152606401610cd4565b60006001600160a01b0382166115b35760405162461bcd60e51b815260206004820152602960248201527f4552433732313a2061646472657373207a65726f206973206e6f7420612076616044820152683634b21037bbb732b960b91b6064820152608401610cd4565b506001600160a01b031660009081526004602052604090205490565b6115d7612127565b6115e16000612468565b565b600081815260146020908152604080832060018101548251635c4443cf60e11b81529251919385936001600160a01b039092169263b888879e926004808201939291829003018186803b15801561163957600080fd5b505afa15801561164d573d6000803e3d6000fd5b505050506040513d601f19601f820116820180604052508101906116719190612810565b6001600160a01b031663feaf968c6040518163ffffffff1660e01b815260040160a06040518083038186803b1580156116a957600080fd5b505afa1580156116bd573d6000803e3d6000fd5b505050506040513d601f19601f820116820180604052508101906116e19190612b3a565b5091979650505050505050565b600b54604051633755269b60e01b815260048101839052600091829182916001600160a01b031690633755269b9060240160a06040518083038186803b15801561173757600080fd5b505afa15801561174b573d6000803e3d6000fd5b505050506040513d601f19601f8201168201806040525081019061176f9190612a38565b9450505092509250600080836001600160a01b031663d6c8d1b4876040518263ffffffff1660e01b81526004016117a891815260200190565b604080518083038186803b1580156117bf57600080fd5b505afa1580156117d3573d6000803e3d6000fd5b505050506040513d601f19601f820116820180604052508101906117f79190612ab3565b9092509050600185600181111561181057611810612e1b565b146118505760405162461bcd60e51b815260206004820152601060248201526f6f7074696f6e2069732061637469766560801b6044820152606401610cd4565b600a546040516331a9108f60e11b81526004810188905233916001600160a01b031690636352211e9060240160206040518083038186803b15801561189457600080fd5b505afa1580156118a8573d6000803e3d6000fd5b505050506040513d601f19601f820116820180604052508101906118cc9190612810565b6001600160a01b0316146119125760405162461bcd60e51b815260206004820152600d60248201526c3cb7ba903737ba1037bbb732b960991b6044820152606401610cd4565b6001600160a01b03841660009081526016602052604081205460ff16600281111561193f5761193f612e1b565b14156119865760405162461bcd60e51b81526020600482015260166024820152751cdd1c985d1959de481b9bdd081cdd5c1c1bdc9d195960521b6044820152606401610cd4565b600a546040516323b872dd60e01b8152336004820152306024820152604481018890526001600160a01b03909116906323b872dd90606401600060405180830381600087803b1580156119d857600080fd5b505af11580156119ec573d6000803e3d6000fd5b5060009250600191506119fc9050565b6001600160a01b03861660009081526016602052604090205460ff166002811115611a2957611a29612e1b565b14611a35576000611a38565b60015b604080518082018252338152815160a0810183526001600160a01b0398891681526001600160801b03968716602082810191909152959096168683015263ffffffff9096166060808701919091529115156080808701919091528487019586526000998a526014855298819020955186549088166001600160a01b03199182161787559451805160018801805491909916961695909517909655918301516002850155509281015160038301559182015160048201559201516005909201805492151560ff199093169290921790915550565b606060028054610aae90612d8b565b6000600754600854611b2b84610b58565b611b359190612d15565b610a999190612d29565b611b4a3383836124b8565b5050565b611b56612127565b600f55565b611b63612127565b601055565b611b70612127565b600755565b611b7f338361224e565b611b9b5760405162461bcd60e51b8152600401610cd490612caf565b611ba78484848461257f565b50505050565b611bb5612127565b601155565b6060611bc582612181565b6000611bdc60408051602081019091526000815290565b90506000815111611bfc5760405180602001604052806000815250610c58565b80611c06846125b2565b604051602001611c17929190612bb6565b6040516020818303038152906040529392505050565b611c35612127565b600855565b60008181526015602090815260408083206014909252822082611c5c85610b58565b905080611c6e57506000949350505050565b82546000908290611c8190612710612d29565b611c8b9190612d15565b611c9790612710612d29565b905060006064601054600f5484611cae9190612d29565b611cb89190612d15565b611cc29190612d15565b9050600061271085600101600101546012548487611ce09190612d29565b611cea9190612d29565b611cf49190612d15565b611cfe9190612d15565b600586015490915060ff1615611d2a576003850154611d1e908290612cfd565b98975050505050505050565b6003850154611d1e908290612d48565b600082815260156020526040902054611d875760405162461bcd60e51b815260206004820152600f60248201526e1bdc1d1a5bdb881c995919595b5959608a1b6044820152606401610cd4565b6000611d9283611314565b600084815260156020526040902054909150611daf908290612cfd565b821115611df05760405162461bcd60e51b815260206004820152600f60248201526e1d1bdbc81b5d58da08185b5bdd5b9d608a1b6044820152606401610cd4565b6000838152601460205260409020546001600160a01b03163314611e1357600080fd5b600c54600084815260146020526040908190205490516323b872dd60e01b81526001600160a01b039182166004820152306024820152604481018590529116906323b872dd90606401602060405180830381600087803b158015611e7657600080fd5b505af1158015611e8a573d6000803e3d6000fd5b505050506040513d601f19601f82011682018060405250810190611eae91906129e1565b50600c5460135460405163a9059cbb60e01b81526001600160a01b0391821660048201526024810185905291169063a9059cbb90604401602060405180830381600087803b158015611eff57600080fd5b505af1158015611f13573d6000803e3d6000fd5b505050506040513d601f19601f82011682018060405250810190611f3791906129e1565b506000838152601560205260408120548390611f54908490612cfd565b611f5e9190612d48565b6013549091506001600160a01b0316631b45a68d611f7c8486612d48565b6040518263ffffffff1660e01b8152600401611f9a91815260200190565b600060405180830381600087803b158015611fb457600080fd5b505af1158015611fc8573d6000803e3d6000fd5b505060408051808201825284815242602080830191825260008a815260159091528390209151825551600190910155518692503391507f77c6871227e5d2dec8dadd5354f78453203e22e669cd0ec4c19d9a8c5edb31d09061202d9087815260200190565b60405180910390a350505050565b612043612127565b6001600160a01b0381166120a85760405162461bcd60e51b815260206004820152602660248201527f4f776e61626c653a206e6577206f776e657220697320746865207a65726f206160448201526564647265737360d01b6064820152608401610cd4565b6120b181612468565b50565b600081815260146020526040908190206001810154915163b07f0a4160e01b81526004810184905290916001600160a01b03169063b07f0a4190602401600060405180830381600087803b15801561210b57600080fd5b505af115801561211f573d6000803e3d6000fd5b505050505050565b6000546001600160a01b031633146115e15760405162461bcd60e51b815260206004820181905260248201527f4f776e61626c653a2063616c6c6572206973206e6f7420746865206f776e65726044820152606401610cd4565b6000818152600360205260409020546001600160a01b03166120b15760405162461bcd60e51b8152602060048201526018602482015277115490cdcc8c4e881a5b9d985b1a59081d1bdad95b88125160421b6044820152606401610cd4565b600081815260056020526040902080546001600160a01b0319166001600160a01b0384169081179091558190612215826114e9565b6001600160a01b03167f8c5be1e5ebec7d5bd14f71427d1e84f3dd0314c0f7b2291e5b200ac8c7c3b92560405160405180910390a45050565b60008061225a836114e9565b9050806001600160a01b0316846001600160a01b031614806122a157506001600160a01b0380821660009081526006602090815260408083209388168352929052205460ff165b806113755750836001600160a01b03166122ba84610b31565b6001600160a01b031614949350505050565b826001600160a01b03166122df826114e9565b6001600160a01b0316146123435760405162461bcd60e51b815260206004820152602560248201527f4552433732313a207472616e736665722066726f6d20696e636f72726563742060448201526437bbb732b960d91b6064820152608401610cd4565b6001600160a01b0382166123a55760405162461bcd60e51b8152602060048201526024808201527f4552433732313a207472616e7366657220746f20746865207a65726f206164646044820152637265737360e01b6064820152608401610cd4565b6123b06000826121e0565b6001600160a01b03831660009081526004602052604081208054600192906123d9908490612d48565b90915550506001600160a01b0382166000908152600460205260408120805460019290612407908490612cfd565b909155505060008181526003602052604080822080546001600160a01b0319166001600160a01b0386811691821790925591518493918716917fddf252ad1be2c89b69c2b068fc378daa952ba7f163c4a11628f55a4df523b3ef91a4505050565b600080546001600160a01b038381166001600160a01b0319831681178455604051919092169283917f8be0079c531659141344cd1fd0a4f28419497f9722a3daafe3b4186f6b6457e09190a35050565b816001600160a01b0316836001600160a01b0316141561251a5760405162461bcd60e51b815260206004820152601960248201527f4552433732313a20617070726f766520746f2063616c6c6572000000000000006044820152606401610cd4565b6001600160a01b03838116600081815260066020908152604080832094871680845294825291829020805460ff191686151590811790915591519182527f17307eab39ab6107e8899845ad3d59bd9653f200f220920489ca2b5937696c319101610a40565b61258a8484846122cc565b612596848484846126b0565b611ba75760405162461bcd60e51b8152600401610cd490612c5d565b6060816125d65750506040805180820190915260018152600360fc1b602082015290565b8160005b811561260057806125ea81612dc0565b91506125f99050600a83612d15565b91506125da565b60008167ffffffffffffffff81111561261b5761261b612e47565b6040519080825280601f01601f191660200182016040528015612645576020820181803683370190505b5090505b84156113755761265a600183612d48565b9150612667600a86612ddb565b612672906030612cfd565b60f81b81838151811061268757612687612e31565b60200101906001600160f81b031916908160001a9053506126a9600a86612d15565b9450612649565b60006001600160a01b0384163b156127b257604051630a85bd0160e11b81526001600160a01b0385169063150b7a02906126f4903390899088908890600401612be5565b602060405180830381600087803b15801561270e57600080fd5b505af192505050801561273e575060408051601f3d908101601f1916820190925261273b91810190612a1b565b60015b612798573d80801561276c576040519150601f19603f3d011682016040523d82523d6000602084013e612771565b606091505b5080516127905760405162461bcd60e51b8152600401610cd490612c5d565b805181602001fd5b6001600160e01b031916630a85bd0160e11b149050611375565b506001949350505050565b80516001600160801b03811681146127d457600080fd5b919050565b805169ffffffffffffffffffff811681146127d457600080fd5b60006020828403121561280557600080fd5b8135610c5881612e5d565b60006020828403121561282257600080fd5b8151610c5881612e5d565b6000806040838503121561284057600080fd5b823561284b81612e5d565b9150602083013561285b81612e5d565b809150509250929050565b60008060006060848603121561287b57600080fd5b833561288681612e5d565b9250602084013561289681612e5d565b929592945050506040919091013590565b600080600080608085870312156128bd57600080fd5b84356128c881612e5d565b935060208501356128d881612e5d565b925060408501359150606085013567ffffffffffffffff808211156128fc57600080fd5b818701915087601f83011261291057600080fd5b81358181111561292257612922612e47565b604051601f8201601f19908116603f0116810190838211818310171561294a5761294a612e47565b816040528281528a602084870101111561296357600080fd5b82602086016020830137600060208483010152809550505050505092959194509250565b6000806040838503121561299a57600080fd5b82356129a581612e5d565b9150602083013561285b81612e72565b600080604083850312156129c857600080fd5b82356129d381612e5d565b946020939093013593505050565b6000602082840312156129f357600080fd5b8151610c5881612e72565b600060208284031215612a1057600080fd5b8135610c5881612e80565b600060208284031215612a2d57600080fd5b8151610c5881612e80565b600080600080600060a08688031215612a5057600080fd5b855160028110612a5f57600080fd5b6020870151909550612a7081612e5d565b9350612a7e604087016127bd565b9250612a8c606087016127bd565b9150608086015163ffffffff81168114612aa557600080fd5b809150509295509295909350565b60008060408385031215612ac657600080fd5b612acf836127bd565b9150612add602084016127bd565b90509250929050565b600060208284031215612af857600080fd5b5035919050565b600060208284031215612b1157600080fd5b5051919050565b60008060408385031215612b2b57600080fd5b50508035926020909101359150565b600080600080600060a08688031215612b5257600080fd5b612b5b866127d9565b9450602086015193506040860151925060608601519150612b7e608087016127d9565b90509295509295909350565b60008151808452612ba2816020860160208601612d5f565b601f01601f19169290920160200192915050565b60008351612bc8818460208801612d5f565b835190830190612bdc818360208801612d5f565b01949350505050565b6001600160a01b0385811682528416602082015260408101839052608060608201819052600090612c1890830184612b8a565b9695505050505050565b6020810160038310612c4457634e487b7160e01b600052602160045260246000fd5b91905290565b602081526000610c586020830184612b8a565b60208082526032908201527f4552433732313a207472616e7366657220746f206e6f6e20455243373231526560408201527131b2b4bb32b91034b6b83632b6b2b73a32b960711b606082015260800190565b6020808252602e908201527f4552433732313a2063616c6c6572206973206e6f7420746f6b656e206f776e6560408201526d1c881b9bdc88185c1c1c9bdd995960921b606082015260800190565b60008219821115612d1057612d10612def565b500190565b600082612d2457612d24612e05565b500490565b6000816000190483118215151615612d4357612d43612def565b500290565b600082821015612d5a57612d5a612def565b500390565b60005b83811015612d7a578181015183820152602001612d62565b83811115611ba75750506000910152565b600181811c90821680612d9f57607f821691505b602082108114156113ce57634e487b7160e01b600052602260045260246000fd5b6000600019821415612dd457612dd4612def565b5060010190565b600082612dea57612dea612e05565b500690565b634e487b7160e01b600052601160045260246000fd5b634e487b7160e01b600052601260045260246000fd5b634e487b7160e01b600052602160045260246000fd5b634e487b7160e01b600052603260045260246000fd5b634e487b7160e01b600052604160045260246000fd5b6001600160a01b03811681146120b157600080fd5b80151581146120b157600080fd5b6001600160e01b0319811681146120b157600080fdfea26469706673582212206dcab62774cf1068b1a36791b33fa4a5451e427a3d925cd0f72dbbfdced0f94b64736f6c63430008060033",
  "devdoc": {
    "kind": "dev",
    "methods": {
      "approve(address,uint256)": {
        "details": "See {IERC721-approve}."
      },
      "balanceOf(address)": {
        "details": "See {IERC721-balanceOf}."
      },
      "getApproved(uint256)": {
        "details": "See {IERC721-getApproved}."
      },
      "isApprovedForAll(address,address)": {
        "details": "See {IERC721-isApprovedForAll}."
      },
      "name()": {
        "details": "See {IERC721Metadata-name}."
      },
      "owner()": {
        "details": "Returns the address of the current owner."
      },
      "ownerOf(uint256)": {
        "details": "See {IERC721-ownerOf}."
      },
      "renounceOwnership()": {
        "details": "Leaves the contract without owner. It will not be possible to call `onlyOwner` functions anymore. Can only be called by the current owner. NOTE: Renouncing ownership will leave the contract without an owner, thereby removing any functionality that is only available to the owner."
      },
      "safeTransferFrom(address,address,uint256)": {
        "details": "See {IERC721-safeTransferFrom}."
      },
      "safeTransferFrom(address,address,uint256,bytes)": {
        "details": "See {IERC721-safeTransferFrom}."
      },
      "setApprovalForAll(address,bool)": {
        "details": "See {IERC721-setApprovalForAll}."
      },
      "supportsInterface(bytes4)": {
        "details": "See {IERC165-supportsInterface}."
      },
      "symbol()": {
        "details": "See {IERC721Metadata-symbol}."
      },
      "tokenURI(uint256)": {
        "details": "See {IERC721Metadata-tokenURI}."
      },
      "transferFrom(address,address,uint256)": {
        "details": "See {IERC721-transferFrom}."
      },
      "transferOwnership(address)": {
        "details": "Transfers ownership of the contract to a new account (`newOwner`). Can only be called by the current owner."
      }
    },
    "version": 1
  },
  "userdoc": {
    "kind": "user",
    "methods": {},
    "version": 1
  },
  "storageLayout": {
    "storage": [
      {
        "astId": 53,
        "contract": "contracts/DDL.sol:DDL",
        "label": "_owner",
        "offset": 0,
        "slot": "0",
        "type": "t_address"
      },
      {
        "astId": 579,
        "contract": "contracts/DDL.sol:DDL",
        "label": "_name",
        "offset": 0,
        "slot": "1",
        "type": "t_string_storage"
      },
      {
        "astId": 581,
        "contract": "contracts/DDL.sol:DDL",
        "label": "_symbol",
        "offset": 0,
        "slot": "2",
        "type": "t_string_storage"
      },
      {
        "astId": 585,
        "contract": "contracts/DDL.sol:DDL",
        "label": "_owners",
        "offset": 0,
        "slot": "3",
        "type": "t_mapping(t_uint256,t_address)"
      },
      {
        "astId": 589,
        "contract": "contracts/DDL.sol:DDL",
        "label": "_balances",
        "offset": 0,
        "slot": "4",
        "type": "t_mapping(t_address,t_uint256)"
      },
      {
        "astId": 593,
        "contract": "contracts/DDL.sol:DDL",
        "label": "_tokenApprovals",
        "offset": 0,
        "slot": "5",
        "type": "t_mapping(t_uint256,t_address)"
      },
      {
        "astId": 599,
        "contract": "contracts/DDL.sol:DDL",
        "label": "_operatorApprovals",
        "offset": 0,
        "slot": "6",
        "type": "t_mapping(t_address,t_mapping(t_address,t_bool))"
      },
      {
        "astId": 2181,
        "contract": "contracts/DDL.sol:DDL",
        "label": "LTV",
        "offset": 0,
        "slot": "7",
        "type": "t_uint256"
      },
      {
        "astId": 2186,
        "contract": "contracts/DDL.sol:DDL",
        "label": "LTV_DECIMALS",
        "offset": 0,
        "slot": "8",
        "type": "t_uint256"
      },
      {
        "astId": 2188,
        "contract": "contracts/DDL.sol:DDL",
        "label": "liquidator",
        "offset": 0,
        "slot": "9",
        "type": "t_address"
      },
      {
        "astId": 2191,
        "contract": "contracts/DDL.sol:DDL",
        "label": "collateralToken",
        "offset": 0,
        "slot": "10",
        "type": "t_contract(IERC721)1536"
      },
      {
        "astId": 2194,
        "contract": "contracts/DDL.sol:DDL",
        "label": "operationalPool",
        "offset": 0,
        "slot": "11",
        "type": "t_contract(IHegicOperationalTreasury)3477"
      },
      {
        "astId": 2197,
        "contract": "contracts/DDL.sol:DDL",
        "label": "USDC",
        "offset": 0,
        "slot": "12",
        "type": "t_contract(IERC20)236"
      },
      {
        "astId": 2200,
        "contract": "contracts/DDL.sol:DDL",
        "label": "interestRate",
        "offset": 0,
        "slot": "13",
        "type": "t_uint256"
      },
      {
        "astId": 2205,
        "contract": "contracts/DDL.sol:DDL",
        "label": "INTEREST_RATE_DECIMALS",
        "offset": 0,
        "slot": "14",
        "type": "t_uint256"
      },
      {
        "astId": 2208,
        "contract": "contracts/DDL.sol:DDL",
        "label": "liqCoef",
        "offset": 0,
        "slot": "15",
        "type": "t_uint256"
      },
      {
        "astId": 2211,
        "contract": "contracts/DDL.sol:DDL",
        "label": "LIQ_COEF_DECIMALS",
        "offset": 0,
        "slot": "16",
        "type": "t_uint256"
      },
      {
        "astId": 2213,
        "contract": "contracts/DDL.sol:DDL",
        "label": "minBorrowLimit",
        "offset": 0,
        "slot": "17",
        "type": "t_uint256"
      },
      {
        "astId": 2215,
        "contract": "contracts/DDL.sol:DDL",
        "label": "COLLATERAL_DECIMALS",
        "offset": 0,
        "slot": "18",
        "type": "t_uint256"
      },
      {
        "astId": 2218,
        "contract": "contracts/DDL.sol:DDL",
        "label": "pool",
        "offset": 0,
        "slot": "19",
        "type": "t_contract(IPoolDDL)3322"
      },
      {
        "astId": 2249,
        "contract": "contracts/DDL.sol:DDL",
        "label": "collateralInfo",
        "offset": 0,
        "slot": "20",
        "type": "t_mapping(t_uint256,t_struct(CollateralInfo)2240_storage)"
      },
      {
        "astId": 2254,
        "contract": "contracts/DDL.sol:DDL",
        "label": "borrowedByOption",
        "offset": 0,
        "slot": "21",
        "type": "t_mapping(t_uint256,t_struct(BorrowedByOption)2223_storage)"
      },
      {
        "astId": 2259,
        "contract": "contracts/DDL.sol:DDL",
        "label": "strategyType",
        "offset": 0,
        "slot": "22",
        "type": "t_mapping(t_address,t_enum(HegicStrategyType)2244)"
      }
    ],
    "types": {
      "t_address": {
        "encoding": "inplace",
        "label": "address",
        "numberOfBytes": "20"
      },
      "t_bool": {
        "encoding": "inplace",
        "label": "bool",
        "numberOfBytes": "1"
      },
      "t_contract(IERC20)236": {
        "encoding": "inplace",
        "label": "contract IERC20",
        "numberOfBytes": "20"
      },
      "t_contract(IERC721)1536": {
        "encoding": "inplace",
        "label": "contract IERC721",
        "numberOfBytes": "20"
      },
      "t_contract(IHegicOperationalTreasury)3477": {
        "encoding": "inplace",
        "label": "contract IHegicOperationalTreasury",
        "numberOfBytes": "20"
      },
      "t_contract(IPoolDDL)3322": {
        "encoding": "inplace",
        "label": "contract IPoolDDL",
        "numberOfBytes": "20"
      },
      "t_enum(HegicStrategyType)2244": {
        "encoding": "inplace",
        "label": "enum DDL.HegicStrategyType",
        "numberOfBytes": "1"
      },
      "t_mapping(t_address,t_bool)": {
        "encoding": "mapping",
        "key": "t_address",
        "label": "mapping(address => bool)",
        "numberOfBytes": "32",
        "value": "t_bool"
      },
      "t_mapping(t_address,t_enum(HegicStrategyType)2244)": {
        "encoding": "mapping",
        "key": "t_address",
        "label": "mapping(address => enum DDL.HegicStrategyType)",
        "numberOfBytes": "32",
        "value": "t_enum(HegicStrategyType)2244"
      },
      "t_mapping(t_address,t_mapping(t_address,t_bool))": {
        "encoding": "mapping",
        "key": "t_address",
        "label": "mapping(address => mapping(address => bool))",
        "numberOfBytes": "32",
        "value": "t_mapping(t_address,t_bool)"
      },
      "t_mapping(t_address,t_uint256)": {
        "encoding": "mapping",
        "key": "t_address",
        "label": "mapping(address => uint256)",
        "numberOfBytes": "32",
        "value": "t_uint256"
      },
      "t_mapping(t_uint256,t_address)": {
        "encoding": "mapping",
        "key": "t_uint256",
        "label": "mapping(uint256 => address)",
        "numberOfBytes": "32",
        "value": "t_address"
      },
      "t_mapping(t_uint256,t_struct(BorrowedByOption)2223_storage)": {
        "encoding": "mapping",
        "key": "t_uint256",
        "label": "mapping(uint256 => struct DDL.BorrowedByOption)",
        "numberOfBytes": "32",
        "value": "t_struct(BorrowedByOption)2223_storage"
      },
      "t_mapping(t_uint256,t_struct(CollateralInfo)2240_storage)": {
        "encoding": "mapping",
        "key": "t_uint256",
        "label": "mapping(uint256 => struct DDL.CollateralInfo)",
        "numberOfBytes": "32",
        "value": "t_struct(CollateralInfo)2240_storage"
      },
      "t_string_storage": {
        "encoding": "bytes",
        "label": "string",
        "numberOfBytes": "32"
      },
      "t_struct(BorrowedByOption)2223_storage": {
        "encoding": "inplace",
        "label": "struct DDL.BorrowedByOption",
        "members": [
          {
            "astId": 2220,
            "contract": "contracts/DDL.sol:DDL",
            "label": "borrowed",
            "offset": 0,
            "slot": "0",
            "type": "t_uint256"
          },
          {
            "astId": 2222,
            "contract": "contracts/DDL.sol:DDL",
            "label": "newBorrowTimestamp",
            "offset": 0,
            "slot": "1",
            "type": "t_uint256"
          }
        ],
        "numberOfBytes": "64"
      },
      "t_struct(CollateralInfo)2240_storage": {
        "encoding": "inplace",
        "label": "struct DDL.CollateralInfo",
        "members": [
          {
            "astId": 2236,
            "contract": "contracts/DDL.sol:DDL",
            "label": "owner",
            "offset": 0,
            "slot": "0",
            "type": "t_address"
          },
          {
            "astId": 2239,
            "contract": "contracts/DDL.sol:DDL",
            "label": "strategy",
            "offset": 0,
            "slot": "1",
            "type": "t_struct(optionInfo)2234_storage"
          }
        ],
        "numberOfBytes": "192"
      },
      "t_struct(optionInfo)2234_storage": {
        "encoding": "inplace",
        "label": "struct DDL.optionInfo",
        "members": [
          {
            "astId": 2225,
            "contract": "contracts/DDL.sol:DDL",
            "label": "strategyAddress",
            "offset": 0,
            "slot": "0",
            "type": "t_address"
          },
          {
            "astId": 2227,
            "contract": "contracts/DDL.sol:DDL",
            "label": "amount",
            "offset": 0,
            "slot": "1",
            "type": "t_uint256"
          },
          {
            "astId": 2229,
            "contract": "contracts/DDL.sol:DDL",
            "label": "strike",
            "offset": 0,
            "slot": "2",
            "type": "t_uint256"
          },
          {
            "astId": 2231,
            "contract": "contracts/DDL.sol:DDL",
            "label": "expiration",
            "offset": 0,
            "slot": "3",
            "type": "t_uint256"
          },
          {
            "astId": 2233,
            "contract": "contracts/DDL.sol:DDL",
            "label": "isLong",
            "offset": 0,
            "slot": "4",
            "type": "t_bool"
          }
        ],
        "numberOfBytes": "160"
      },
      "t_uint256": {
        "encoding": "inplace",
        "label": "uint256",
        "numberOfBytes": "32"
      }
    }
  }
}